{
  "_format": "hh-sol-artifact-1",
  "contractName": "BuyMeACoffee",
  "sourceName": "contracts/BuyMeACoffee.sol",
  "abi": [
    {
      "inputs": [],
      "stateMutability": "nonpayable",
      "type": "constructor"
    },
    {
      "anonymous": false,
      "inputs": [
        {
          "indexed": true,
          "internalType": "address",
          "name": "from",
          "type": "address"
        },
        {
          "components": [
            {
              "internalType": "uint256",
              "name": "timestamp",
              "type": "uint256"
            },
            {
              "internalType": "string",
              "name": "name",
              "type": "string"
            },
            {
              "internalType": "string",
              "name": "message",
              "type": "string"
            }
          ],
          "indexed": false,
          "internalType": "struct IBuyMeACoffe.Memo",
          "name": "memo",
          "type": "tuple"
        }
      ],
      "name": "NewMemo",
      "type": "event"
    },
    {
      "inputs": [
        {
          "internalType": "string",
          "name": "_name",
          "type": "string"
        },
        {
          "internalType": "string",
          "name": "_message",
          "type": "string"
        }
      ],
      "name": "buyMeACoffe",
      "outputs": [],
      "stateMutability": "payable",
      "type": "function"
    },
    {
      "inputs": [],
      "name": "getMemos",
      "outputs": [
        {
          "components": [
            {
              "internalType": "uint256",
              "name": "timestamp",
              "type": "uint256"
            },
            {
              "internalType": "string",
              "name": "name",
              "type": "string"
            },
            {
              "internalType": "string",
              "name": "message",
              "type": "string"
            }
          ],
          "internalType": "struct IBuyMeACoffe.Memo[]",
          "name": "",
          "type": "tuple[]"
        }
      ],
      "stateMutability": "view",
      "type": "function"
    },
    {
      "inputs": [],
      "name": "withdrawTips",
      "outputs": [],
      "stateMutability": "nonpayable",
      "type": "function"
    }
  ],
  "bytecode": "0x608060405234801561001057600080fd5b50336000806101000a81548173ffffffffffffffffffffffffffffffffffffffff021916908373ffffffffffffffffffffffffffffffffffffffff160217905550610b4c806100606000396000f3fe6080604052600436106100345760003560e01c80633aaa74b214610039578063865c517214610050578063c82f103c1461007b575b600080fd5b34801561004557600080fd5b5061004e610097565b005b34801561005c57600080fd5b506100656100f7565b604051610072919061055f565b60405180910390f35b610095600480360381019061009091906106ca565b610284565b005b60008054906101000a900473ffffffffffffffffffffffffffffffffffffffff1673ffffffffffffffffffffffffffffffffffffffff166108fc479081150290604051600060405180830381858888f193505050506100f557600080fd5b565b60606001805480602002602001604051908101604052809291908181526020016000905b8282101561027b57838290600052602060002090600302016040518060600160405290816000820154815260200160018201805461015890610771565b80601f016020809104026020016040519081016040528092919081815260200182805461018490610771565b80156101d15780601f106101a6576101008083540402835291602001916101d1565b820191906000526020600020905b8154815290600101906020018083116101b457829003601f168201915b505050505081526020016002820180546101ea90610771565b80601f016020809104026020016040519081016040528092919081815260200182805461021690610771565b80156102635780601f1061023857610100808354040283529160200191610263565b820191906000526020600020905b81548152906001019060200180831161024657829003601f168201915b5050505050815250508152602001906001019061011b565b50505050905090565b600034116102c7576040517f08c379a00000000000000000000000000000000000000000000000000000000081526004016102be906107ff565b60405180910390fd5b60006040518060600160405280428152602001848152602001838152509050600181908060018154018082558091505060019003906000526020600020906003020160009091909190915060008201518160000155602082015181600101908161033191906109cb565b50604082015181600201908161034791906109cb565b5050503373ffffffffffffffffffffffffffffffffffffffff167f60ee82110fe014f94a583b9f9d85f22f04ded35423ee4bc97e3362d4c0afbe34826040516103909190610af4565b60405180910390a2505050565b600081519050919050565b600082825260208201905092915050565b6000819050602082019050919050565b6000819050919050565b6103dc816103c9565b82525050565b600081519050919050565b600082825260208201905092915050565b60005b8381101561041c578082015181840152602081019050610401565b60008484015250505050565b6000601f19601f8301169050919050565b6000610444826103e2565b61044e81856103ed565b935061045e8185602086016103fe565b61046781610428565b840191505092915050565b600060608301600083015161048a60008601826103d3565b50602083015184820360208601526104a28282610439565b915050604083015184820360408601526104bc8282610439565b9150508091505092915050565b60006104d58383610472565b905092915050565b6000602082019050919050565b60006104f58261039d565b6104ff81856103a8565b935083602082028501610511856103b9565b8060005b8581101561054d578484038952815161052e85826104c9565b9450610539836104dd565b925060208a01995050600181019050610515565b50829750879550505050505092915050565b6000602082019050818103600083015261057981846104ea565b905092915050565b6000604051905090565b600080fd5b600080fd5b600080fd5b600080fd5b7f4e487b7100000000000000000000000000000000000000000000000000000000600052604160045260246000fd5b6105d782610428565b810181811067ffffffffffffffff821117156105f6576105f561059f565b5b80604052505050565b6000610609610581565b905061061582826105ce565b919050565b600067ffffffffffffffff8211156106355761063461059f565b5b61063e82610428565b9050602081019050919050565b82818337600083830152505050565b600061066d6106688461061a565b6105ff565b9050828152602081018484840111156106895761068861059a565b5b61069484828561064b565b509392505050565b600082601f8301126106b1576106b0610595565b5b81356106c184826020860161065a565b91505092915050565b600080604083850312156106e1576106e061058b565b5b600083013567ffffffffffffffff8111156106ff576106fe610590565b5b61070b8582860161069c565b925050602083013567ffffffffffffffff81111561072c5761072b610590565b5b6107388582860161069c565b9150509250929050565b7f4e487b7100000000000000000000000000000000000000000000000000000000600052602260045260246000fd5b6000600282049050600182168061078957607f821691505b60208210810361079c5761079b610742565b5b50919050565b600082825260208201905092915050565b7f43616e27742062757920636f6666656520776974682030206574680000000000600082015250565b60006107e9601b836107a2565b91506107f4826107b3565b602082019050919050565b60006020820190508181036000830152610818816107dc565b9050919050565b60008190508160005260206000209050919050565b60006020601f8301049050919050565b600082821b905092915050565b6000600883026108817fffffffffffffffffffffffffffffffffffffffffffffffffffffffffffffffff82610844565b61088b8683610844565b95508019841693508086168417925050509392505050565b6000819050919050565b60006108c86108c36108be846103c9565b6108a3565b6103c9565b9050919050565b6000819050919050565b6108e2836108ad565b6108f66108ee826108cf565b848454610851565b825550505050565b600090565b61090b6108fe565b6109168184846108d9565b505050565b5b8181101561093a5761092f600082610903565b60018101905061091c565b5050565b601f82111561097f576109508161081f565b61095984610834565b81016020851015610968578190505b61097c61097485610834565b83018261091b565b50505b505050565b600082821c905092915050565b60006109a260001984600802610984565b1980831691505092915050565b60006109bb8383610991565b9150826002028217905092915050565b6109d4826103e2565b67ffffffffffffffff8111156109ed576109ec61059f565b5b6109f78254610771565b610a0282828561093e565b600060209050601f831160018114610a355760008415610a23578287015190505b610a2d85826109af565b865550610a95565b601f198416610a438661081f565b60005b82811015610a6b57848901518255600182019150602085019450602081019050610a46565b86831015610a885784890151610a84601f891682610991565b8355505b6001600288020188555050505b505050505050565b6000606083016000830151610ab560008601826103d3565b5060208301518482036020860152610acd8282610439565b91505060408301518482036040860152610ae78282610439565b9150508091505092915050565b60006020820190508181036000830152610b0e8184610a9d565b90509291505056fea2646970667358221220c95c0217a28af3e1266880fd157c72bd3ee15c1116c4919171ea330f090f761464736f6c63430008110033",
  "linkReferences": {},
  "deployedLinkReferences": {}
}